:0600000000F081EF00F0AA
:10000800FFFF0F82A4A00BEF00F00EEF00F0FFFF40
:100018007DEF00F0FFFFCAEC00F0040E0418D8A42E
:1000280018EF00F01BEF00F0FFFF46EF00F0FFFFB6
:100038000A50D8A422EF00F025EF00F0FFFF46EFAA
:1000480000F0FFFF110E0B18D8A42DEF00F030EFD1
:1000580000F0FFFF46EF00F0FFFF89B036EF00F039
:100068003AEF00F0FFFF010E3CEF00F0FFFF000E3B
:10007800FFFFFF0A0C6E89500C18FE0B0C18896ED6
:100088007BEF00F0FFFF030E0218D8A44EEF00F03C
:1000980051EF00F0FFFF7BEF00F0FFFF0A50D8A4FC
:1000A80058EF00F05BEF00F0FFFF7BEF00F0FFFF81
:1000B800110E0B18D8A463EF00F066EF00F0FFFFF5
:1000C8007BEF00F0FFFF89B26CEF00F070EF00F0FB
:1000D800FFFF010E72EF00F0FFFF000EFFFFFF0AA7
:1000E8000C6E0C4689500C18FD0B0C18896EFFFF1E
:1000F800A490FFFF0F921100FFFF01EF01F0FFFF37
:1001080092908990929289920CEC01F0AAEC00F0FE
:10011800F19E9380FFFF81B094EF00F097EF00F01D
:10012800FFFF8EEF00F0FFFFE9EC00F0140E0E6EFB
:100138000A0E0D6E400EFFFFE82EFDD70D2EFBD7E1
:100148000E2EF9D78EEF00F081EF00F0FFFF9394A9
:100158009386A380A5806F8EFFFF800E6E18D8A4AB
:10016800B8EF00F0BBEF00F0FFFFB0EF00F0FFFFCB
:10017800C10E706EAE0E716E450E726E200E736EED
:10018800608A608C000E6F6E1200FFFFFFFF0C0E7E
:100198006F6E66CF01F067CF02F068CF03F069CFCA
:1001A80004F06ACF05F06BCF06F06CCF07F06DCF87
:1001B80008F065CF09F062CF0AF061CF0BF0609EBE
:1001C800000E6F6E1200FFFFFFFFFFFF110EE8CF5A
:1001D80041FF000EE8CF42FF080EE8CF45FF220E90
:1001E800E8CF47FF220EE8CF49FF220EE8CF4BFFAA
:1001F800080EE8CF40FF1200FFFF00EE01F00B0EE3
:10020800EE6AE806FDE10F900F92000183EF00F01F
:0C021800FFFFF28EF28C1200FFFFFFFFD0
:020000040020DA
:08000000FFFFFFFFFFFFFFFF00
:020000040030CA
:04000000FF220D0EC0
:0800060080FF0FC00FE00F4066
:00000001FF
