:0600000000F081EF00F0AA
:10000800FFFF1182A4A00BEF00F00EEF00F0FFFF3E
:100018007DEF00F0FFFF3DEC01F0030E0418D8A4BB
:1000280018EF00F01BEF00F0FFFF46EF00F0FFFFB6
:100038000A50D8A422EF00F025EF00F0FFFF46EFAA
:1000480000F0FFFF110E0B18D8A42DEF00F030EFD1
:1000580000F0FFFF46EF00F0FFFF89B036EF00F039
:100068003AEF00F0FFFF010E3CEF00F0FFFF000E3B
:10007800FFFFFF0A0C6E89500C18FE0B0C18896ED6
:100088007BEF00F0FFFF030E0218D8A44EEF00F03C
:1000980051EF00F0FFFF7BEF00F0FFFF0A50D8A4FC
:1000A80058EF00F05BEF00F0FFFF7BEF00F0FFFF81
:1000B800110E0B18D8A463EF00F066EF00F0FFFFF5
:1000C8007BEF00F0FFFF89B26CEF00F070EF00F0FB
:1000D800FFFF010E72EF00F0FFFF000EFFFFFF0AA7
:1000E8000C6E0C4689500C18FD0B0C18896EFFFF1E
:1000F800A490FFFF11921100FFFF86EF01F0FFFFB0
:10010800000E946E949E000E8B6E82BE8EEF00F0F1
:1001180091EF00F0FFFFC4EF00F0FFFF8B8E030E9E
:100128000418D8A49AEF00F09DEF00F0FFFFF1EF5C
:1001380000F0FFFF0A50D8A4A4EF00F0A7EF00F0EA
:10014800FFFFF1EF00F0FFFF110E0B18D8A4AFEF7F
:1001580000F0B2EF00F0FFFFF1EF00F0FFFFFFFF4C
:1001680074EC01F0140E0E6E0A0E0D6E400EFFFFB9
:10017800E82EFDD70D2EFBD70E2EF9D7F1EF00F0A4
:10018800FFFF82AECAEF00F0CDEF00F0FFFFF1EF06
:1001980000F0FFFF8B9E030E0418D8A4D6EF00F0E2
:1001A800D9EF00F0FFFFF1EF00F0FFFF0A50D8A4ED
:1001B800E0EF00F0E3EF00F0FFFFF1EF00F0FFFFEA
:1001C800110E0B18D8A4EBEF00F0EEEF00F0FFFFD4
:1001D800F1EF00F0FFFFB3EF00F0FFFF1200FFFFA9
:1001E800FFFF929089909292899291EC01F01DEC18
:1001F80001F083EC00F0F19E9380FFFF81B007EFE0
:1002080001F00AEF01F0FFFF01EF01F0FFFF5CECE6
:1002180001F0140E106E0A0E0F6E400EFFFFE82E4E
:10022800FDD70F2EFBD7102EF9D701EF01F081EF84
:1002380000F0FFFF93949386A380A5806F8EFFFF45
:10024800800E6E18D8A42BEF01F02EEF01F0FFFFFF
:1002580023EF01F0FFFFC10E706EAE0E716E450EFA
:10026800726E200E736E608A608C000E6F6E1200C4
:10027800FFFFFFFF0C0E6F6E66CF01F067CF02F035
:1002880068CF03F069CF04F06ACF05F06BCF06F0B2
:100298006CCF07F06DCF08F065CF09F062CF0AF098
:1002A80061CF0BF0609E000E6F6E1200FFFFFFFF24
:1002B800FFFF110EE8CF41FF000EE8CF42FF080E06
:1002C800E8CF45FF030EE8CF47FF030EE8CF49FF0D
:1002D800040EE8CF4BFF080EE8CF40FF1200FFFFE7
:1002E800FFFF110EE8CF31FF000EE8CF32FF080EF6
:1002F800E8CF35FF040EE8CF3BFF080EE8CF30FF0C
:100308001200FFFF00EE01F00B0EEE6AE806FDE1B9
:10031800119011920001F4EF00F0FFFFF28EF28CC1
:060328001200FFFFFFFFC1
:020000040020DA
:08000000FFFFFFFFFFFFFFFF00
:020000040030CA
:04000000FF220D0EC0
:0800060080FF0FC00FE00F4066
:00000001FF
